:020000040800F2
:10000000F80600208901000891010008930100080A
:100010009501000897010008990100080000000000
:100020000000000000000000000000009B0100082C
:100030009D010008000000009F010008210E00083B
:10004000A3010008A3010008A3010008A301000800
:10005000A3010008A3010008A3010008A3010008F0
:10006000A3010008A3010008A3010008A3010008E0
:10007000A3010008A3010008A3010008A3010008D0
:10008000A3010008A3010008A3010008A3010008C0
:10009000A3010008A3010008A3010008A3010008B0
:1000A000A3010008A3010008A3010008A3010008A0
:1000B000A3010008A3010008A3010008A301000890
:1000C000A3010008A3010008A3010008A301000880
:1000D000A3010008A3010008A3010008A301000870
:1000E000A3010008A3010008A301000800F002F822
:1000F00000F03AF80AA090E8000C82448344AAF188
:100100000107DA4501D100F02FF8AFF2090EBAE885
:100110000F0013F0010F18BFFB1A43F0010318473B
:100120001010000030100000103A24BF78C878C1C9
:10013000FAD8520724BF30C830C144BF04680C60ED
:10014000704700000023002400250026103A28BF35
:1001500078C1FBD8520728BF30C148BF0B60704739
:100160001FB51FBD10B510BD00F0EBF81146FFF72D
:10017000F7FF00F01DFF00F009F903B4FFF7F2FFED
:1001800003BC00F011F90000094880470948004706
:10019000FEE7FEE7FEE7FEE7FEE7FEE7FEE7FEE737
:1001A000FEE7FEE704480549054A064B7047000094
:1001B0006D0E0008ED000008F8000020F806002091
:1001C000F8020020F802002010B54C1084EA530415
:1001D00004D54042C1F1000138BF491E1B4204D57D
:1001E0005242C3F1000338BF5B1E00F033F814F035
:1001F000804F04D04042C1F1000138BF491E14F0C5
:10020000004F04D05242C3F1000338BF5B1E10BD43
:1002100010B5431C02E010F8011B71B18107FAD13F
:100220004FF0013202C88C1A8C4314EAC211F9D083
:10023000C01A0A0603D0C01E10BDC01A10BD0A04A1
:1002400001D0801E10BD0902FCD0401E10BD7047B9
:100250007047704753EA020C00F069802DE9F04BBB
:100260004FF00006002B1FBFB3FA83F503FA05F425
:1002700024FA05F65E4012BF1643B2FA82F502FA7E
:1002800005F4C5F120051EBF22FA05FC44EA0C0462
:10029000203556EA044C4FEA144418BF641C4FF052
:1002A00000084FF00009904271EB030C39D300298C
:1002B00019BFB1FA81F701FA07F6B0FA80F700FA30
:1002C00007F6C7F120071EBF20FA07FC46EA0C0616
:1002D0002037B6FBF4FCA7EB0507103F07F01F0B18
:1002E000CBF120060CFA0BFB2CFA06F644BFB34602
:1002F0000026202FA4BF5E464FF0000B5BEA060CE1
:1003000008BF4FF0010B19EB0B09ABFB027C48EB6C
:100310000608C01B06FB02CC0BFB03CC71EB0C01E7
:10032000C1E70B46024641464846BDE8F08B13B58F
:100330004FF000004FF00001AFF30080BDE81C401B
:100340007047754600F02CF8AE46050069465346E6
:1003500020F00700854618B020B5FFF723FFBDE861
:1003600020404FF000064FF000074FF000084FF01C
:10037000000B21F00701AC46ACE8C009ACE8C009AD
:10038000ACE8C009ACE8C0098D46704710B504461A
:10039000AFF300802046BDE81040FFF7EEBE00003E
:1003A000004870479400002001491820ABBEFEE7CA
:1003B00026000200704700B500F04EFB00F002F886
:1003C00000BD00002E48806940F400702C4988610F
:1003D0000846406820F4404048600846406840F4C1
:1003E00000404860881527490860C01C091D086046
:1003F0004FF4401023492831086023482149303107
:10040000086022481F490C3108601E48001D006822
:1004100040F001001B49091D086000BF00BF00BF7C
:1004200000BF00BF1748001D006840F001001549DB
:10043000091D08600846006840F00800086000BF19
:100440001048001D006800F008000028F8D10D4891
:10045000001D006840F004000A49091D086000BF43
:100460000848001D006800F004000028F8D1054885
:10047000001D006840F480000249091D08607047B3
:10048000001002400424014062900200C0B6010046
:1004900070B50246214B1B68A3F596319303204C9F
:1004A0002488A3EB04531F4CB4F9004004FB113320
:1004B00003F58043DC131C4BB3F900304B439B1214
:1004C0001A4DB5F900504D434FF4004606EBE525B3
:1004D0006B43B50105EBA323154DB5F900506B43F4
:1004E00003F500539B1304FB03F1CB135B43DB11B8
:1004F000104C24786343A1EB2311002901DA002377
:1005000000E00B461946B1F1C85F02DD4FF0C85359
:1005100000E00B4619460813800A70BD2400002035
:1005200046000020480000204A000020440000202F
:1005300042000020400000202DE9F14F82B07048B9
:100540000068C1174FF4FA33C41A61F10005A4FB27
:10055000041005FB040004FB05036A48B0F9000021
:10056000C217A1FB008A03FB00A001FB0209664839
:10057000B0F90000C117A4FB002305FB003004FB09
:100580000100400440EAD230510411EB080840EB6E
:1005900009095E48B0F9000018F1000849EBC009EC
:1005A000A4FB041005FB040004FB05025848B0F945
:1005B00000004FEAE073A1FB00CA02FB00A001FBB0
:1005C00003004FEA1C2141EA00614FEA2022514812
:1005D000B0F900004FEAE073A446ACFB00BE05FB97
:1005E00000E004FB03004FEA003040EA1B504FEAF2
:1005F0000B33CC1842EB0005231C45F5004146485F
:1006000000880022A3FB00AC01FB00C003FB02003A
:100610004410C517002184EA01006940084301D154
:10062000BDE8FE8F0298C0F58010C7170646F80790
:1006300040EA5600F107B1EB080160EB090040F613
:1006400035434FF0000CA1FB032A00FB03A001FB84
:100650000C00CDE9002022462B46DDE90001FFF722
:10066000B3FD06460F46710B41EAC74C7A132B487F
:10067000B0F90000C317ACFB001A02FB00A00CFB92
:100680000302700B40EAC74C7B13A1FB0C0A02FB70
:100690000CA201FB0321400E40EAC1144D16204874
:1006A000B0F90000C117A0FB062301FB063100FBD7
:1006B0000711D00C40EA41384FEAE149311947EBC4
:1006C000050011EB080140EB0900090A41EA00614D
:1006D00003121448B0F90000C217120142EA107266
:1006E0004FEA001C11EB0C0643EB02074FF4C84223
:1006F000002330463946FFF767FD064630468FE750
:1007000024000020380000203600002034000020A3
:1007100032000020300000202E0000203E0000208B
:100720003C0000203A00002030B50146CC10104DAE
:100730002D88A4EB45040F4DB5F900506C43E2122F
:100740000B4C2488C4EB2114644324130A4DB5F9DF
:1007500000506C43A313D418084D2C602C46246819
:1007600004EB840480342012642490FBF4F030BD48
:10077000280000202A0000202C0000202400002057
:1007800010B50122F221762000F0C8F900F022F81D
:100790002722F421762000F0C1F9A022F52176204D
:1007A00000F0BCF910BDFEB504460D4616466A467B
:1007B00001A902A800F0D4F80298FFF7B5FF206065
:1007C0000198FFF7B9FE28600098FFF761FE3060DE
:1007D000FEBD000000B587B0182301AA882176204D
:1007E00000F05AF99DF804009DF8051040EA012038
:1007F000494908809DF806009DF8071040EA01204D
:1008000000B2464908809DF808009DF8091040EAAA
:10081000012000B2424908809DF80A009DF80B10A3
:1008200040EA01203F4908809DF80C009DF80D101A
:1008300040EA012000B23C4908809DF80E009DF876
:100840000F1040EA012000B2384908809DF81000DE
:100850009DF8111040EA012000B2354908809DF84A
:1008600012009DF8131040EA012000B231490880BF
:100870009DF814009DF8151040EA012000B22E49A1
:1008800008809DF816009DF8171040EA012000B27C
:100890002A4908809DF818009DF8191040EA0120A7
:1008A00000B2274908809DF81A009DF81B1040EA05
:1008B000012000B2234908800123234AA121762088
:1008C00000F0EAF8072301AAE121762000F0E4F81D
:1008D0009DF804009DF8051040EA012000B21B4974
:1008E00008809DF806001A4908809DF807109DF8B9
:1008F000080061F31F10174908809DF809000001E6
:100900009DF8081040EA1110134908809DF80A006C
:100910001249088007B000BD280000202A000020EE
:100920002C0000202E00002030000020320000208B
:100930003400002036000020380000203A0000205B
:100940003C0000203E00002040000020420000202B
:100950004400002046000020480000204A000020FB
:10096000FEB506460C461546032302AAFA21762058
:1009700000F092F89DF8080000039DF8091040EA85
:1009800001109DF80A1040EA21103060032301AAEB
:10099000F721762000F080F89DF8040000039DF810
:1009A000051040EA01109DF8061040EA2110206071
:1009B00002236A46FD21762000F06EF89DF80100C2
:1009C0009DF8001040EA01202860FEBD08488069BB
:1009D00040F00400064988610648006820F0FF00E6
:1009E000044908600846006840F0BB000860704792
:1009F00000100240000801400A48406940F0010030
:100A0000084948610848806820F00100064988606C
:100A100006480861064848610420C86042F2A150B7
:100A20008860704700100240000002404C240140E2
:100A300000000020074800684FF47A71B0FBF1F025
:100A4000401E4FF0E02148610020886107200861C6
:100A5000704700004C0000200D48806940F0040001
:100A60000B4988610B48006820F4706009490860F0
:100A70000846006820F4704008600846006820F4CA
:100A8000702008600846006820F470000860704715
:100A90000010024000080140F0B507460E4615461A
:100AA0001C4600F0BDF80021384600F05BF81A48FB
:100AB000068000BF1848001D008800F08000002854
:100AC000F8D000F0ADF80121384600F04BF817E0FF
:100AD000012C09D110481038008820F480600E499C
:100AE0001039088000F0B2F80B48001D008800F0B3
:100AF000400028B10848008828706D1C601EC4B2F0
:100B0000002CE5D104481038008840F48060024988
:100B100010390880F0BD00001054004070B5064642
:100B20000C46154600F07CF80021304600F01AF81B
:100B30000B48048000BF0A48001D008800F08000B8
:100B40000028F8D00648058000BF0548001D008831
:100B500000F080000028F8D000F078F870BD0000A8
:100B60001054004041EA4003DAB2084B1A8000BF3B
:100B7000064B1B1D1B8803F00203002BF8D0034B10
:100B80001B1D1B88014B08331B8870471054004005
:100B90002048C06940F400101E49C86108468069B9
:100BA00040F0080088610846806940F001008861D3
:100BB0001948006820F07F4017490860084600681F
:100BC00040F04C4008600846006840F04C50086017
:100BD0001248008840F40040104908800846008808
:100BE00020F4004008802420091D0880081D00888A
:100BF00040F48040091D0880B42008491C31088059
:100C00002520091D08800548008840F0010003499F
:100C10000880704700100240000C01400054004062
:100C20000948008840F48060074908800846008829
:100C300040F48070088000BF03481430008800F042
:100C400001000028F8D07047005400400348008895
:100C500040F40070014908807047000000540040D3
:100C600000B5FFF7B3FE00F001F800BD0C48C06905
:100C700040F001000A49C86142F21070810688857F
:100C80008F20088546F2600008834FF4FA7088864A
:100C9000088741F21110088401200880888270477B
:100CA0000010024010B515A000F024FA1849088879
:100CB00000F054F9044600F01DFA0A2000F032F961
:100CC00014A000F017FA1748006800F047F904462E
:100CD00000F010FA0A2000F025F913A000F00AFA3B
:100CE0001448006800F03AF9044600F003FA0A20BC
:100CF00000F018F90A2000F015F910BD4C6967687A
:100D00007420696E74656E736974793A200000000E
:100D10000000002054656D70657261747572653AEB
:100D2000200000001000002050726573737572651A
:100D30003A2000001400002010B500F001F810BDAA
:100D40000CB50020019000903348006840F48030DA
:100D50003149086000BF3048006800F4003000905E
:100D60000198401C0190009818B90198B0F5A06F47
:100D7000F1D12948006800F4003010B10120009042
:100D800001E0002000900098012843D1234800682A
:100D900040F01000214908600846006820F0070074
:100DA00008600846006840F0020008601A48406881
:100DB000194948600846406848600846406840F461
:100DC000806048600846406820F47C10486008460F
:100DD000406840F4E81048600846006840F08070C1
:100DE000086000BF0C48006800F000700028F9D0CF
:100DF0000948406820F003000749486008464068F9
:100E000040F00200486000BF0348406800F00C005A
:100E10000828F9D10CBD000000100240002002405B
:100E200010B50D480068401C0B4908600B4800686D
:100E3000401C0A49086008460068B0F57A7F09D16D
:100E4000074A08490848FFF7AEFCFFF72BFF0020D0
:100E50000249086010BD00001C0000202000002096
:100E600018000020140000201000002010B51348C6
:100E7000006840F0010011490860084640681049C8
:100E800008400E494860084600680E4908400B4972
:100E900008600846006820F4802008600846406822
:100EA00020F4FE0048604FF41F008860FFF744FF05
:100EB0004FF000600449086010BD000000100240BF
:100EC0000000FFF8FFFFF6FE08ED00E01248806921
:100ED00040F00800104988610846C06940F480204D
:100EE000C8610E48006820F47F400C49086008463D
:100EF000006840F4944008600948008840F40050BD
:100F0000074908800846008840F00C00088040F639
:100F1000A660091F0880704700100240040C0140C1
:100F20000C480040C0F30801054A118000BF044985
:100F3000091F098801F080018029F8D1704700005D
:100F4000044800400021044A116000BF02490968BA
:100F50008142FBD3704700001C00002070B504469E
:100F600000250026002C01DA0126644200BF0A2079
:100F700094FBF0F100FB11403030C2B228466D1CEA
:100F80000A490A540A2094FBF0F4002CEFD11EB158
:100F90002D2228466D1C0A54002004494855294634
:100FA000024800F0B6F8014870BD00006000002063
:100FB000FFF740FDFFF7FFF9FFF71EFDFFF750FEBB
:100FC000FFF784FFFFF7E4FDFFF7DAFB8AE071E04B
:100FD00045480068B0F57A7F04DD4FF47A704249E5
:100FE00008600EE040480068B0F5967F04DA4FF4E0
:100FF00096703D49086004E04FF08040808E3A4989
:1010000008603A48006840F2E241884203DD084641
:10101000364908600EE035480068B0F5967F04DA7E
:101020004FF496703149086004E04FF08040008F23
:101030002E4908602E4909882D4A5288881A0028AE
:1010400001DB014600E04142642913DD28480088A5
:1010500027494988884201DD012401E04FF0FF342F
:10106000214800680A2101FB0400490788860A20FC
:10107000FFF768FF1E4989881D4AD288881A002810
:1010800001DB014600E04142642913DD18488088F5
:101090001749C988884201DA012501E04FF0FF3580
:1010A00012480068052101FB0500890708870A200E
:1010B000FFF748FF0E4A12880D4B5B88D11A0029B2
:1010C00001DB0A4600E04A42322A81DC084A928863
:1010D000074BDB88D01A002801DB024600E04242C1
:1010E000322AF2DC73E70000080000200C00002028
:1010F0000000002070B504462046FFF789F8054639
:10110000002303E0E05CFFF70DFF5B1CAB42F9DB63
:1011100070BD30B50B4600215A1E06E0445C855C6C
:1011200045548454491C521E00BF9142F6DB30BD29
:101130005011000800000020600000002801000895
:10114000B01100086000002098060000440100086B
:10115000000000000000000000000000000000008F
:10116000000000000000000000000000000000007F
:10117000000000000000000000000000000000006F
:10118000000000000000000000000000000000005F
:1011900000000000000000000000000000A24A045F
:1011A0000000000000000000010203040607080917
:040000050800018965
:00000001FF
